:03000000020003F8
:0C000300787FE4F6D8FD75811102004AF8
:10008F007D017C007F011200EE7D027C007F021259
:10009F0000EE7D037C007F031200EE7D047C007F69
:1000AF00041200EE7D057C007F051200EE7D067CBC
:1000BF00007F061200EE7D077C007F071200EE7DA9
:0A00CF00087C007F081200EE80B6E6
:1000D900EF1FAA0670011E4A60047DC380F27F8A61
:0400E900DFFEDDFC5D
:0100ED0022F0
:0C0100000A083F065B4F666D7D077F6FAD
:1000EE0074082DF8E6F5807F017E001200D9E4F544
:0100FE008081
:0100FF0022DE
:10000F0002008FE493A3F8E493A34003F68001F278
:10001F0008DFF48029E493A3F85407240CC8C333F2
:10002F00C4540F4420C8834004F456800146F6DFC1
:10003F00E4800B0102040810204080900100E47E50
:10004F00019360BCA3FF543F30E509541FFEE493B6
:10005F00A360010ECF54C025E060A840B8E493A37D
:10006F00FAE493A3F8E493A3C8C582C8CAC583CAA8
:10007F00F0A3C8C582C8CAC583CADFE9DEE780BE60
:01010C0000F2
:00000001FF
